:020000040800F2
:1000000000220020852100088D6900087121000868
:1000100000000000000000000000000000000000E0
:100020000000000000000000000000006122000845
:100030000000000000000000F1210008494600080F
:10004000B1230008B1230008B1230008B123000840
:10005000B1230008B1230008B1230008B123000830
:10006000B1230008B1230008B1230008B123000820
:10007000B1230008B1230008B1230008B123000810
:10008000B1230008B1230008B1230008B123000800
:10009000B1230008B1230008B1230008B1230008F0
:1000A000B1230008B1230008B1230008B1230008E0
:0C00B000B1230008B1230008B1230008B0
:1000BC0002B4714649084900095649008E4402BCF5
:1000CC007047C04602B4714649084900095C4900B2
:1000DC008E4402BC7047C046002934D00123002254
:1000EC0010B488422CD301242407A14204D28142AB
:1000FC0002D209011B01F8E7E400A14204D28142BB
:10010C0002D249005B00F8E7884201D3401A1A4337
:10011C004C08A04202D3001B5C0822438C08A0426E
:10012C0002D3001B9C082243CC08A04202D3001B24
:10013C00DC082243002803D01B0901D00909E3E79E
:10014C00100010BC704701B5002000F05FF802BD34
:10015C000029F8D003B5FFF7C1FF0EBC4243891A42
:10016C001847C046002941D010B404004C40A446A6
:10017C0001230022002900D54942002800D5404225
:10018C0088422CD301242407A14204D2814202D2FA
:10019C0009011B01F8E7E400A14204D2814202D21A
:1001AC0049005B00F8E7884201D3401A1A434C0817
:1001BC00A04202D3001B5C0822438C08A04202D34D
:1001CC00001B9C082243CC08A04202D3001BDC0875
:1001DC002243002803D01B0901D00909E3E71000D2
:1001EC006446002C00D5404210BC704701B500207D
:1001FC0000F00CF802BDC0460029F7D003B5FFF79C
:10020C00B3FF0EBC4243891A1847C0467047C0461C
:10021C001C2101231B04984201D3000C10391B0A2A
:10022C00984201D3000A08391B09984201D30009EE
:10023C00043902A2105C40187047C0460403020245
:10024C0001010101000000000000000041420840D3
:10025C001C2101231B04984201D3000C10391B0AEA
:10026C00984201D3000A08391B09984201D30009AE
:10027C00043902A2105C401A7047C0461B1C1D1D9D
:10028C001E1E1E1E1F1F1F1F1F1F1F1F002B11D1E5
:10029C00002A0FD1002900D1002802D00021C94327
:1002AC00080007B4024802A14018029003BDC046E2
:1002BC005DFFFFFF03B4684601B5029800F053F8E8
:1002CC00019B9E4602B00CBC7047C046D0400B0050
:1002DC00D1409C46203AD340184352426346934047
:1002EC00184370479140030090409C46203A93403D
:1002FC00194352426346D3401943704710B5002945
:10030C0003D1FFF785FF203002E00800FFF780FFE4
:10031C0010BDC0460023C25C0133002AFBD1581E1D
:10032C007047F7B5040C0D0091B20F0061438C4679
:10033C000600019383B2100C5F43444358433B0CBB
:10034C0060441B18994202D9802149026418019912
:10035C0055437143180C04191B04BFB24919D81921
:10036C00091903B0F0BDF0B506000F0015001C0014
:10037C0085B08B4263D801D1824260D8210028001D
:10038C00FFF7BCFF390000903000FFF7B7FF009B70
:10039C0021001B1A1A0028000393FFF7A3FF0090FB
:1003AC000191B94245D801D1B04242D8009B019C81
:1003BC0001200021039AF61AA741FFF793FF0400CE
:1003CC000D00039B002B2BD0019B009ADB075008E0
:1003DC001843019B5908039B9C46B9422CD801D168
:1003EC00B04229D832003B00121A8B4101269218D8
:1003FC005B410027B6185F4101235B429C44634676
:10040C00002BEAD130003900039AFFF75FFF039A03
:10041C00A4197D4106000F00FFF764FF241A8D41DB
:10042C000A9B002B01D01E605F602000290005B0E4
:10043C00F0BD00240025C4E7B6197F41DCE7002499
:10044C000025EDE770B50C4805F012FC002500F016
:10045C00EFF800F0E1FE07F029F900236422FFF722
:10046C0015FF0400431B632BF5D900F049F8250058
:10047C0000F0CEF8EFE7C0461E83000810B5074B1E
:10048C001A78D8795978904202D15879884204D098
:10049C0003485971DA7100F0D3FE10BDB801002089
:1004AC00BD01002010B5034B01211871024805F065
:1004BC000CFF10BDB80100204001002010B501292F
:1004CC0009D10A0082401000034B1A7842400348BD
:1004DC001A7005F0FAFE10BDB80100204001002092
:1004EC0010B50100044B180007F01CF9012103485A
:1004FC0005F0EBFE10BDC046C006002040010020F8
:10050C00002210B53B4C23792271A278012B30D0FC
:10051C00022B37D0A378012B08D90121364805F0DE
:10052C00D4FEA378022B36D0032B42D0E378012BD8
:10053C0008D90121304805F0C8FEE378022B42D0DF
:10054C00032B49D000212D4805F0BFFE00280FD009
:10055C00237A1818031CC0B2F02845D9284B1B78F5
:10056C002848237200F0FEFE0121234805F0ADFE61
:10057C0010BD002A03D0012ACCD1022300E00323B2
:10058C00A370C7E7E278002A03D0012AC2D1E37036
:10059C00C0E70323FBE723781A48E3710123A37117
:1005AC0000F0C2FEA3781848023BA37005F060FB74
:1005BC00BCE700231348A37100F042FEA378134854
:1005CC00023BA370F2E70023A278E370013363705F
:1005DC00002AB7D16371B5E70123E3700023637080
:1005EC00A378002BAED1F5E7DAB2282AB8D22823AB
:1005FC00B6E7C046B801002040010020C00600202C
:10060C0042830008BD010020328300083A830008B1
:10061C0010B500220121044807F071F8002802D01F
:10062C00024800F09FF910BD40010020B8010020E5
:10063C0070B500F01DFA00211B4804F05DFF1B484B
:10064C0000F052F81A4805F013FB1A4805F010FB9D
:10065C00194800F0A7FD194D1949280005F03AFF7B
:10066C00184C1949200005F035FF290000221748C5
:10067C0000F0A4FD01222100154800F09FFD154853
:10068C0000F0FAFC144800F039FC3221134800F059
:10069C004BFB0221124800F089FBFFF7B9FF114810
:1006AC0005F0E6FA70BDC046204E000085830008B8
:1006BC00438300085C830008BD010020BC060020B9
:1006CC00447B0008B8060020607B0008A8060020C8
:1006DC009806002089040008C9040008B104000829
:1006EC00ED0400086C830008F0B585B0039000F0B1
:1006FC00E9F90398FFF70EFE2723050000245B425F
:10070C004343029326001C482D2C00DD2D26192373
:10071C00B60000931422062130585B3305F0F8FD27
:10072C00262C13DC00F08AF90021144804F0E4FEB6
:10073C00029B01345B190293382CE3D10021104841
:10074C0004F0DAFE00F0BEF905B0F0BD11210298FC
:10075C00FFF708FD461CAE4200DD2E000027B74215
:10076C00E0D00621039B7943D85D0023C9B21A005F
:10077C0000F000FA0137F2E7787E0008E40C000084
:10078C00A08601007FB5040005F0B1FD0500234EE5
:10079C00237A32000821684605F08AFA2B003200D1
:1007AC00082102A805F084FA002110230800252254
:1007BC0005F0E1FD012300221900194805F00DFE9A
:1007CC00102325222021002005F0D5FD0123202215
:1007DC001900144805F001FE112325220E210420D6
:1007EC0005F0E2FD112325222E21042005F0DCFD6D
:1007FC00207A05F06EFD0600280005F06AFD040065
:10080C003100684600230E2205F0E7FD00232E225E
:10081C00210002A805F0E1FD7FBDC04689D3000888
:10082C008C83000891830008F0B50678040085B02D
:10083C00002E00D11036214D10232A0008216846C5
:10084C0005F036FA2A003300082102A805F030FA28
:10085C00022312222021302005F08DFD10231422BA
:10086C000A21302005F0A0FD102314222521302070
:10087C0005F09AFD63786D4602AC002B01D0250083
:10088C006C46280006F0BCFF3027092800DC053731
:10089C00200006F0B5FF3026092800DC05363900AB
:1008AC00280000230A2205F098FD002325223100A0
:1008BC00200005F092FD05B0F0BDC04689D30008BC
:1008CC0013B50400102350200A220C2105F06CFDF6
:1008DC00A3790648002B00D00548102300930C2266
:1008EC005021063B05F014FD13BDC04638C7000867
:1008FC0058C7000807B542781023002A07D00648CD
:10090C000093063B2622502105F002FD07BD009303
:10091C0002480A23F6E7C04618C70008F8C60008C4
:10092C00F7B506000024032733783A1B1341012244
:10093C002501134002210A4AEDB201A805F0B8F9CD
:10094C00102308222900702005F02EFD013400230D
:10095C002A00702101A805F040FD042CE4D1F7BD5C
:10096C0089D300081FB50100EFF3108472B6092279
:10097C0001A806F034FF002C02D162B6BFF36F8FD2
:10098C00234B244C1A78002A18D0002201A81A7084
:10099C00FFF7F8FE01A8FFF747FF01A8FFF790FF4C
:1009AC0001A8FFF7A7FF01A8FFF7BAFF00F046F870
:1009BC000922200001A906F012FF1FBD6B469A7A8E
:1009CC00A3799A4202D001A8FFF77AFF6B465A79B5
:1009DC0063789A4205D001A8FFF78CFF01A8FFF7B6
:1009EC00D1FE6B461A7B237A9A4202D001A8FFF7FC
:1009FC00C9FE6B461A7923789A4205D001A8FFF7F5
:100A0C008FFF01A8FFF7BEFE01A8FFF70DFFCDE792
:100A1C00C1010020EA0800207FB500200BAB059334
:100A2C000393054B0122029301900300009001F007
:100A3C0017F807B000BDC04678C7000810B586B0DF
:100A4C0000F03CF880230200DB000393064B00927D
:100A5C0004938023002205480593836811009C6849
:100A6C0003ABA04706B010BD80004000987B000887
:100A7C001FB50F4C200006F03FFC00280CD10D4B8D
:100A8C00019002930090030001220B49FFF7C4FF71
:100A9C001320404204B010BD00F014F8FFF7CEFF55
:100AAC00A3685B68002B01D0200098470020F1E779
:100ABC00987B000878C70008B87D0008004870478C
:100ACC00F3080020802210B500210248D20006F065
:100ADC008FFE10BDF308002043B230B5002B0EDBA7
:100AEC003F290CD80725CC08064BE40129401B19DB
:100AFC00063D8D401C5C002A02D02C431C5430BD9A
:100B0C00AC43FBE7F3080020F0B585B000910293ED
:100B1C0011210023164C01920A005A431519A25CAC
:100B2C00824221D12C000025631C5F5D029B002BAF
:100B3C0001D0FF43FFB20026019B5B19DBB203938C
:100B4C00802232413A40531E9A41009B03999819D6
:100B5C00D2B2C0B20136FFF7BFFF082EF0D101357B
:100B6C00102DE1D105B0F0BD01335F2BD4D1DAE704
:100B7C0078C90008F0B587B0049305230024012739
:100B8C0043430392104A02919B180193019B1E5DF3
:100B9C00049B002B01D0F643F6B20025029B1B19D7
:100BAC00DBB2059332002A41039B059859193A4050
:100BBC00C9B20135FFF790FF072DF3D10134052C95
:100BCC00E4D107B0F0BDC046FDC6000870B506F014
:100BDC006DFD64220023FFF759FB02000B0015008A
:100BEC001E001D4C206861682D1A8E41002E02DCFF
:100BFC0024D1012D22D919482260636005F001FC33
:100C0C000400174805F0FDFB6300034315485BB275
:100C1C000278154992001A43D2B28A5613490370CE
:100C2C00134B0C681B6812190A609A4207DB0023ED
:100C3C000B60104B01201B68002B0BD170BD5B426D
:100C4C009A42FBDC00230B600A4B1B68002BF5D08F
:100C5C00012040429847F1E728020020407F00081D
:100C6C00387F0008F30C0020F7CF0008C4060020E2
:100C7C00C8060020CC06002010B5064B1A78002AB6
:100C8C0007D000221A70044B1B68934201D001203C
:100C9C00984710BDF40C0020D0060020F7B506F0E4
:100CAC0005FD64220023FFF7F1FA02000B00160089
:100CBC001F001649088816490C684D68361BAF4151
:100CCC00002F01D1B04215D812480A604B6005F0D4
:100CDC0098FB00280ED0104C10482378002B0AD01B
:100CEC0006F0F4FC002323700D4B1B68002B01D085
:100CFC0002209847F7BD01232370002200230092A5
:100D0C0001930023074A04F047FFF3E7E8080020AB
:100D1C0068020020307F0008F40C00203002002014
:100D2C00D006002030750000F8B506000F00012435
:100D3C00002823D0144D280006F0DEFA00281FD01E
:100D4C000022124B12491E60124B13481F80134B8A
:100D5C001A7006F0AFFC124E300005F066FB041E54
:100D6C000CD1300005F07DFB041E07D10D490E4B54
:100D7C0028004B6002238B6005F088FB2000F8BD37
:100D8C0001246442FAE7C046B87A0008D006002075
:100D9C00850C0008E808002030020020F40C00202C
:100DAC00307F0008D4060020A90C0008F7B5050018
:100DBC000E00012400280AD0274F380006F09CFAB8
:100DCC00002806D12548012404F052FF644220007B
:100DDC00FEBD234B1800019306F08EFA002801D1BA
:100DEC002048F0E70022204B1D60204B1E60204E57
:100DFC00204B30001A6005F018FB041EE7D11E4D85
:100E0C00280005F012FB041EE1D1300005F0F9FAC0
:100E1C000400280005F0F5FA6400184B0443300078
:100E2C001C7005F01EFB041ED1D1280005F019FB27
:100E3C00041ECCD1124D1349134B01224B606B6035
:100E4C00802338001B028A60AB6005F01FFB290071
:100E5C00019805F01BFBBAE7B87A0008C7CF000869
:100E6C000C7B0008DFCF0008CC060020C806002051
:100E7C00407F0008C4060020387F0008F30C0020D7
:100E8C00E0060020EC060020D90B0008030070B52A
:100E9C000C00DA88197940231A40006822438368D1
:100EAC009C69002C06D0B025044B6D0413402A40DD
:100EBC00A04770BD58204042FBE7C04640000006EA
:100ECC00030073B5183B040018681D790669836824
:100EDC0001A95B68984700280CD101213268019B5D
:100EEC0053400A00AA401A4204D1034B30342078F4
:100EFC001B68984773BDC046F8060020F0B58DB04E
:100F0C00002800D188E0454F00263C00444B186077
:100F1C00206806F0F1F900280CD1424B0122029313
:100F2C004149030003960190009005F0C0FA132587
:100F3C006D4233E0802120008903FFF7A7FFE3888F
:100F4C00206807938023079A5B02134321790B9344
:100F5C0001258D4083689C4603691A6808930A92A0
:100F6C00AA4309920122079B134202D00A9A2A43F0
:100F7C000992089B099A1A6063460B9A1B6898475A
:100F8C00051E0ED02849294B04900396002002938D
:100F9C00012203000190009005F089FA28000DB0A1
:100FAC00F0BD20002249183006F078FA012210001A
:100FBC0023792100984003001E482361E0602068DB
:100FCC0008318368DB69002B00D098470136503418
:100FDC00042E9DD10021E826174804F08DFA002438
:100FEC00F60431003800FFF751FF0F49051E03D0FE
:100FFC00124B04900394C9E73B7903220493104BE2
:10100C0003940293019003000090013405F04FFA11
:10101C005037042CE5D1C1E7162589E700000020E4
:10102C00F806002007D00008A87D000820D0000892
:10103C00CD0E0008A96400081027000040D000085D
:10104C0067D0000810B58278002A00D110320178E0
:10105C00C378002906D01821534359430448FFF79D
:10106C003BF810BDC0210348490050435943F6E7F3
:10107C000070383900879303014B18607047C046E5
:10108C0008070020F7B505F045FA3D4C01902368A0
:10109C00002B60D05A7B002A5DD09B68C31A5AD4AF
:1010AC0003F09CFB374B1B68002B1AD03F21C31A53
:1010BC00DF17FD170D401E002A000023B6185F41F4
:1010CC00314BBA061968B60932438A4200DA1A6003
:1010DC002E4B19688A4200DD1A602D4A13680133C1
:1010EC001360284B2A4F1860F0233A685B009A4231
:1010FC000ED3264D244E236826485B682A68316837
:10110C0005F02FFB244B336001332B6000233B6035
:10111C002368186805F0ECF923689A685968521826
:10112C009A60EFF3108172B62268137B0133DBB245
:10113C001373002902D162B6BFF36F8F23681A7B39
:10114C005F2A08D9154A1268002A04D000211973A5
:10115C00187BC0B29047124C2368002B0ED05A7BE0
:10116C00002A0BD09A6801998A1A07D4186805F0DE
:10117C00BFF923689A68596852189A60F7BDC0463F
:10118C001007002000070020480100204401002027
:10119C00FC06002089D00008FFFFFF7F0807002015
:1011AC000C070020002803D0034B18600020704768
:1011BC0016204042FBE7C0460407002010B5041E71
:1011CC001ED000291CD0002301600373437383607D
:1011DC009A420CD118210C4B0C481B68DB785943F4
:1011EC00FEF77AFF0A4B60601C60002010BD012ADC
:1011FC00FBD1054B1868FFF725FF064B6060F3E742
:10120C0016204042F2E7C0460407002000879303F3
:10121C00100700200C07002013B5074C00222000FB
:10122C00064906F047FA642200232000009201933D
:10123C0004F0B2FC13BDC046700200202D650008FE
:10124C00F0B5040085B0002833D04378DAB20292AE
:10125C00002B2ED1304E314F3368386000935B7BBE
:10126C002F4DDAB203922A680192002B23D0FFF79C
:10127C00E9FE019B029A00901A7305F04BF90400E9
:10128C003868FFF7DFFE2B6824189C60EFF310839F
:10129C0072B62A6800995160002B02D162B6BFF376
:1012AC006F8F3368186805F029F92B68186805F0FA
:1012BC0025F905B0F0BD0123009A5373019A5373BD
:1012CC00C178173359431748FEF706FF02902000E8
:1012DC00FFF7B8FE009A03990190117305F01AF903
:1012EC003B680090D97818230E485943FEF7F4FE5A
:1012FC00009B3468C018A06005F00CF90400386835
:10130C00FFF7A0FE2A68029933682418946059608C
:10131C0001995160C6E7C046100700200407002061
:10132C000C0700200087930310B5002812D04378D7
:10133C00002B0FD00022084B084C1860084B21687A
:10134C001B685A734A73186805F0DEF8236818682E
:10135C0005F0DAF810BDC046040700200C07002089
:10136C0010070020F8B5041E32D01821194B186054
:10137C00C37819485943FEF7AFFE05002000FFF76C
:10138C0061FE0400EFF3108372B6144F3A68556097
:10139C00002B02D162B6BFF36F8FEFF3108372B6DE
:1013AC000F4E32685460002B02D162B6BFF36F8FC0
:1013BC0005F0B0F83A682D1893685B1B002B00DD24
:1013CC0095603268241893681B1B002B00DD946019
:1013DC00F8BDC046040700200087930310070020C7
:1013EC000C070020F0B597B0059304230B921A401C
:1013FC000B9B0A92DA0807231A40013207001C9D46
:10140C0003910D92820700D0C5E1041D002804D081
:10141C00072909D81C20404254E1039A1A401300B2
:10142C00A4180822D31A0393059B0426013B0693A8
:10143C00002309930C9304930293013B07930196A9
:10144C00002F01D0059B23600D9B002B00DDF1E0EC
:10145C009D4B059A9A4203D39C4B9A4200D2E9E0E9
:10146C000B99E21B9308890700D50DE1049A0F2A0A
:10147C0000D9BBE0002F00D10EE104990EAA535401
:10148C000A00079912AB99540C9B01330C93F4E0AE
:10149C0008260196069B01330693069B9878002834
:1014AC0000D105E1029B002B08D12528F2D1079B26
:1014BC0001330793012302930426EAE77A284AD8DA
:1014CC004B280ED8472846D829282CD825283FD079
:1014DC0041D82028DED0233843425841C3B202936E
:1014EC00D8E74C382E2836D8FEF7E2FDD435353502
:1014FC00353535353535353537353535353535358E
:10150C003561353737616161D437D235D435183709
:10151C0018353579E63735353735E600002308932D
:10152C000426029327E0012213002A38C0B283401C
:10153C0067490B42AED1E2211800890508400B42E5
:10154C0035D11900114002911342A3D0089013E039
:10155C00079B013B07930023C1E70022069B0892DF
:10156C005B7802926C2B07D10426069B01961B78A4
:10157C006C2B01D1B6190196013CA0193100FEF774
:10158C00ABFD70430400002F3BD0019B039ADB1B87
:10159C001B18934200D93DE7089B002B41D1019BBE
:1015AC00042B20D108CD03600423043415E007215B
:1015BC0007358D4364188C430CCD002F08D00131B6
:1015CC00C91B03980919814200D923E72260636083
:1015DC000023082602933300083401935AE7029B38
:1015EC00089300239CE7019B082B01D0162012E7DF
:1015FC00072307359D430CCD026043600823083454
:10160C00EBE7089B002B0CD1019B042B01D104357B
:10161C00CAE7019B082BE9D10735013B9D430835EF
:10162C00ECE7069B023306930D9B013B0D9308CD13
:10163C00059305E70B9B9B0722D50121E21B930821
:10164C00802080008242D1D2049A0F2ACED8002F5B
:10165C001CD00498DBB20EAA13549C46079B12AA0A
:10166C001354002900D10FE78022634652421343E2
:10167C000EAA1354099B01330993049B0133049361
:10168C00069B0434013B07E70021D9E7002903D06E
:10169C00039B01330393F0E7039B023303930A9BF1
:1016AC00002BEAD10598FEF735FE039B1B18F1E7DA
:1016BC008022E31BD200934298D2002F0AD10398C8
:1016CC000838C01817B0F0BD5479000868DB000862
:1016DC00DAFF00009B08302238603B706B469B1889
:1016EC000A9A1B78002A0BD0FB70099BBB70002B4D
:1016FC001BD100250EAE049BAB421BD1E01BE1E7D6
:10170C007B70F2E70EADED560EA9595C002D07DA91
:10171C00039E15190140B54200D97BE621700134B6
:10172C00013304999942EDD1E3E7012200237F2094
:10173C00D21BF6E7099B002B02D033787F2B1BD8EA
:10174C000A9B002B1BD012ABEB5C237000230134E3
:10175C0001930123019ADB1B1B199B18039A9342DB
:10176C0000D957E63378019A23700134200005998B
:10177C0006F035F8019B1C1901350136BBE73378AF
:10178C009B00FB181A6805920A9A05981A60FEF7D6
:10179C00C1FD431CDCE70E203DE6C046014B186042
:1017AC007047C0464C010020F7B504000D001E0028
:1017BC00019203F0E1FE030000F004FE054F32003D
:1017CC003B5001992800A04700F0FCFD385800F070
:1017DC00EDFCC04608000000802102200A4B0905E0
:1017EC00DA6B82B00A43DA63DA6B0A40074901927A
:1017FC00019A4A68824300204A60DA6B04490A4025
:10180C00DA6302B07047C046001002400058014035
:10181C00FFFFFFF780230D4A9B00116882B00B433A
:10182C00012113600A4B0B4A1A600B4B1A6C0A43CA
:10183C001A641B6C094A0B400193019BC02311686D
:10184C00DB000B43136002B07047C046002002401F
:10185C00A80100200024F400001002400000014008
:10186C00F0B585B001903048039104F090FF051E4F
:10187C000AD1060001272D4C2D4B9C4206D3019B0F
:10188C00002B01D0002E21D105B0F0BD237B002B05
:10189C0011D02368DB68002B01D0200098476368C7
:1018AC009F7123681B69002B08D1636804222000F8
:1018BC00196804F088FF01351034DDE720009847E3
:1018CC000028F2D03B00AB401E43F4E73700300059
:1018DC00FEF7BCFC01238340DA43144D04019E4304
:1018EC002B1901931B7B0292002B0CD063591B69A3
:1018FC00002B14D1029B2D191F406B680422196810
:10190C00019804F060FF002EE1D1039B002B04D062
:10191C00FA200021800003F0EFFD3E00B2E70198B1
:10192C0098470028EFD1E5E71C070020607E0008EF
:10193C00707E0008014B8000C0587047487F00083B
:10194C00030010B50800002B05D0044A136000F00A
:10195C007BFA002010BD16204042FBE7500100200E
:10196C000023FA210B4A10B513700B4A890013603F
:10197C000A4A0B481360FFF7E3FF0A4B0A491800A9
:10198C008B4200D310BD1A1A5C68121101322271FD
:10199C001033F5E7F50C0020140700201807002081
:1019AC008B670008607E0008707E000870B50C4DD7
:1019BC002978002908D10120FFF752FF094C0A4B66
:1019CC009C4202D301232B7070BD63685B79002BA2
:1019DC0003D0236820009B6898471034EFE7C0467B
:1019EC00F50C0020607E0008707E000810B5040025
:1019FC00044804F0CCFE002C03D00121024805F071
:101A0C009EFE10BD140700201807002070B50A4B6D
:101A1C0005001B689847094CA860094B9C4200D3F1
:101A2C0070BD63685B79002B04D02368290020000B
:101A3C001B6898471034F0E750010020607E0008C6
:101A4C00707E0008044B054A00209B1ADB08994263
:101A5C0001D2C90088587047607E0008A87D000834
:101A6C00F0B589B004AF3E6B0400150079603B60A3
:101A7C00002E1CD07B6B1021FB60009300203300E8
:101A8C00FA6AFFF7AFFC802301001B0198420FD3C9
:101A9C0000201D4B022203931C4B1D490293019005
:101AAC000300009004F0B3FEBD4605B0F0BD31005C
:101ABC000722230015401340DB00AD011D434B02F0
:101ACC001D43BC6ABB6A17341B051D436318934343
:101ADC000333043A93430733D34093406A46D31AF3
:101AEC009D4604AC002E07D020007B6B1030009379
:101AFC00FA6A3300FFF776FC2A0020003B6879680D
:101B0C0004F06CFED0E7C046FF070000F1D00008DF
:101B1C00F87D00084068002804D0044BC01AC008A7
:101B2C0000B2704701204042FBE7C046A87D000888
:101B3C000EB417B5054C05AB04CB01002000019386
:101B4C0000F092FD1EBC08BC03B018475768000893
:101B5C0010B5CB0604D4890603D50349FFF7E8FF7B
:101B6C0010BD0249FAE7C0462AD1000829D1000865
:101B7C00F0B591B0079317AB1B7807000C000692D9
:101B8C000593002B00D1B4E002251B9B1B9A1D4032
:101B9C0001231A400C921B9A07331A4008921B9A85
:101BAC00F8331A400992002604F00BFE0200B042F2
:101BBC0004D038009049FFF7BBFF0600002D09D078
:101BCC0044231B9A1A4235D1220038008B49FFF767
:101BDC00AFFF36180C9B002B0AD0059A884B92004D
:101BEC00D258002A00D1874A38008749FFF7A0FF56
:101BFC00099B002B5AD0089B002B77D11C00069B0D
:101C0C00002B05D01A0038008049FFF791FF040023
:101C1C00189B7F48A419002B00D0BEE01A9B002B08
:101C2C0074D11B9BDB0700D5E0E038001B99FFF754
:101C3C008FFFBEE00020774B1D688542C9D0764BE4
:101C4C0020001968FEF748FAFA242900FEF780FAFA
:101C5C00A40061430A9008002900FEF779FA0E915E
:101C6C00E1210D9009010A98FEF772FA0B910B987D
:101C7C003C21FEF731FAE1210F9009010A98FEF799
:101C8C002BFA0A900E9829006043FEF725FA0D9B5B
:101C9C0002903C210B980193FEF75AFA3800009100
:101CAC000F9B0A9A5D49FFF743FF92E7089B099C3B
:101CBC00002B08D0059A5A4B920038005949D2583B
:101CCC00FFF736FF0400069B002B05D01A003800E6
:101CDC004E49FFF72DFF2418079B002B98D01A00B4
:101CEC0038005149FFF724FF241891E7002307938C
:101CFC00E0E7079B4D48012B00D14548189B059CFC
:101D0C00002B4AD11A9B002B53D000241A9E102E64
:101D1C0000D9102638001B99FFF71AFF0025AC429A
:101D2C0052DC199B38001A784149FFF701FF012555
:101D3C0007231D4203D138003E49FFF7F9FEAE429E
:101D4C0048D9199B38005A5D3949FFF7F1FE013526
:101D5C00102DEDD1002538003749FFF7E9FE2B0097
:101D6C00199AD25C1300203B5E2B00D92E2238002E
:101D7C003249FFF7DDFE0135102D30D007231D420F
:101D8C0003D138002B49FFF7D3FE2B00AE42E7D826
:101D9C0038002849FFF7CCFEEDE7189B3A0028499C
:101DAC0004F0A9FC1A9B002BB0D1059B002B00D092
:101DBC0037E77A68B9680CCA386804F037FD002236
:101DCC007B681A6011B0F0BD38001A49FFF7B0FEFD
:101DDC000135A4E738001B49FFF7AAFEB7E7199BAA
:101DEC009B1919931A9B9B1B1A93DCE73800054A25
:101DFC000549FFF79DFE18E731D1000835D10008E1
:101E0C00587F00082CD100085AD100085DD1000879
:101E1C005768000824070020200700203ED1000846
:101E2C006C7F000861D1000867D100086F6800085A
:101E3C006CD1000874D1000876D1000878D1000864
:101E4C007526000872D10008012310B500211C0072
:101E5C00074A904207D8074A002900D10123136092
:101E6C00054B186010BD210040085B00F1E7C0462F
:101E7C0040420F00200700202407002070B50D0001
:101E8C0004004618B44201D1280070BD21780348E3
:101E9C00013483685B689847F4E7C046287B0008E8
:101EAC00014B036000207047B47F000810B5034A53
:101EBC0003480021121A04F046FD10BDFC0C002052
:101ECC00280200200648074A10B5121A064904F0E9
:101EDC003EFD064A06480749121A04F038FD10BDAB
:101EEC00000000202402002068DB00080000002015
:101EFC000000002068DB0008F0B507000D0087B07B
:101F0C00002939D000248B68264E05934B6801229A
:101F1C0004930B6820000393234B3100029301942C
:101F2C002300009404F017FD6B69012205932B69C3
:101F3C0031000493EB68200003931C4B0194029333
:101F4C000094230004F007FDEB6901220393184B66
:101F5C0031002000029301942300009404F0FBFC58
:101F6C00AB6901220393134B310002932000230031
:101F7C000194009404F0EFFC012F0DD1EFF30583D5
:101F8C000020103B03930C4B3A00029305490300CD
:101F9C000190009004F0DFFC2900380002F0B2FC44
:101FAC0007B0F0BD207E0008B5D10008E4D10008D0
:101FBC0013D2000822D2000850D2000830BFFDE72F
:101FCC00F7B50A4B0A4D0600EF18CC1B2A0020006F
:101FDC000849019305F003FC60190021019A05F0F2
:101FEC0007FC3800083C34670830FEBD08000000D0
:101FFC0000000000707E000810B5074B5A699B6802
:10200C009A4205D08023054A5B0551680B43536007
:10201C0002F0FEFF10BDC046B408002000ED00E049
:10202C00F0B53E4B91B05F680400FB05DB0D0793E8
:10203C0062B6BFF36F8F3A4E130EFF2B0DD1F33BED
:10204C001340082B4AD10020364B01220293310059
:10205C0003000190009004F099FC00252C00079BD4
:10206C00032B41D10020304B01220293310003009D
:10207C000190009004F08AFCA3692C4A934202D38D
:10208C002B4A934205D32B4A934241D32A4A93427B
:10209C003ED2023B1A88294B9A4239D10020236840
:1020AC0031000393264B0122029301900300009010
:1020BC0004F06CFC26682022210008A805F08FFB98
:1020CC000F9B002D26D0DA0502D11E4A13430F9325
:1020DC00300008A9FFF710FF11B0F0BD0125120761
:1020EC00BDD50C000025BAE7F8235B00164A1F4249
:1020FC0000D0164A0020079B0392103B0493144B0C
:10210C0001220293310003000190009004F03EFC88
:10211C000026D0E75B0A5B02D9E7C04600ED00E081
:10212C00207E000891D20008BCD20008BC00000838
:10213C004C790008000000200000002002DF0000A5
:10214C00D3D20008FF01000063D2000878D2000847
:10215C00EFD200080821024A53698B435361704740
:10216C0000ED00E0EFF30880EFF3098101B5724652
:10217C00FFF756FF01BDC046094880F3088872B6C8
:10218C0008480949401880F30988EFF314800221AC
:10219C00084380F31488BFF36F8F04F00CFC00002D
:1021AC0000220020001100200008000010B50A4B8E
:1021BC009B6883420DD1EFF30583002B09D080225D
:1021CC00064B520559680A435A605A6A04490A4038
:1021DC005A6203F0D7F910BDB408002000ED00E0FE
:1021EC00FF7FFFFF15498A6815481044EFF3098CEF
:1021FC00F0C043464C4655465E466746F8C072B63C
:10220C00104F114E4A698A603E60104C14192068B8
:10221C000F4C2060506F00235367002800D162B62A
:10222C00074C10191030F8C89846A146AA46B34678
:10223C00BC462438F0C88CF309887047B4080020D9
:10224C003000000004ED00E0000000087000000009
:10225C004C07002004207146014202D0EFF30980A4
:10226C0001D1EFF308808169023909780229FFD086
:10227C0001B5724604F07EFB01BDC04643B20006B8
:10228C0005D41F221A4001239340014A1360704762
:10229C0000E100E030B5FF2503220B00290040B21D
:1022AC000240D20091409B012B40C943934000282F
:1022BC000ADBC0240A4A800880008018A400025956
:1022CC000A401343035130BD0F2210400838054A11
:1022DC00800880008018C26911401943C161F2E77F
:1022EC0000E100E000ED00E0FF22044B9343044AC0
:1022FC009360BFF34F8FBFF36F8F704700000008E0
:10230C0000ED00E010B5203A1360029B01245360ED
:10231C00039B06499360049BA143D36080235B0419
:10232C00D361002391610265436710BDB5170008A6
:10233C0070B50B4B15009860026F0A4B0E001A60BB
:10234C002C1C86F309880020034B9847201C002185
:10235C0000220023014C2047DF690008B517000854
:10236C00B40800204C0700201022014B1A61704762
:10237C0000ED00E0F0B5C02400220326FF25A400E8
:10238C0010002F003040C0008740054993089B0087
:10239C005B1819590132B94319511F2AF0D1F0BDFC
:1023AC0000E100E010B5EFF30583054A103BDB00BC
:1023BC00D118496898588847FFF71EFE10BDC046D3
:1023CC00D07B000801480068704700004C070020D3
:1023DC0010B50121024B034A034800F083F810BDED
:1023EC000040022000000020B47F00081FB5FF242D
:1023FC00104A13681B0A2340013B98420ED90390E4
:10240C0000200D4B019002930090030001220B4918
:10241C0004F0FDFA1620404204B010BD90600B6829
:10242C00A343102403432343D360012389680B4344
:10243C001361F1E790ED00E006D30008187E000868
:10244C00F0B51400050000268BB004910593049B95
:10245C009E4215DA686800282AD0059B002B17D0FD
:10246C00431E03420FD00020134B01220293134949
:10247C00030003960190009004F0C9FA16246442FC
:10248C0020000BB0F0BDFF28EDD92A681A42EAD122
:10249C002B68AF68079304F0A9FA07A90743E0B2C9
:1024AC000997FFF7A3FF030004001633E6D00134AD
:1024BC0001360C35CBE7C0462CD30008187E00083B
:1024CC000522034B5A60BFF34F8FBFF36F8F7047DA
:1024DC0090ED00E0BFF35F8F0022014B5A60704714
:1024EC0090ED00E010B5034C01232278FFF7A8FF14
:1024FC00207010BDF70C0020F0B5FF26534C544F44
:10250C0023683D681B0A87B033409D4200D99BE08D
:10251C00FFF7E0FF7968002210200127954219D1BE
:10252C004C4F02A83D70FFF7BBFC002301900093B9
:10253C00009A019B934219D1FF2100203A7823681D
:10254C001B0A0B409A4200DA7AE0FFF7B9FF002031
:10255C0007B0F0BDA2600B68B34313430343E360C1
:10256C008B6801323B4323610C31D7E78021009B00
:10257C0009041A01029B9B18DA68120D12058A4293
:10258C0043D00ED8802189038A4230D08021C903E0
:10259C008A4233D0802149038A4215D0009B0133F3
:1025AC00C5E7802189048A4237D0802149058A42B7
:1025BC003BD0802149048A42F0D198685E681D683E
:1025CC0004F014FA882326E098685E681D6804F00D
:1025DC000DFA214B1843059003A9387803960495FE
:1025EC00FFF704FF002827DA16204042B0E798686E
:1025FC005E681D6804F0FAF9184BEBE798685E68A2
:10260C001D6804F0F3F9164BE4E798685E681D68E2
:10261C0004F0ECF982235B04DCE798685E681D68C3
:10262C0004F0E4F98023DB02D4E798685E681D6847
:10263C0004F0DCF90B4BCDE73B7801333B70ADE795
:10264C00A260206101327AE70120CEE790ED00E034
:10265C00C07F0008F70C002000000B1100000811CF
:10266C000000020600000211F0B587B007000E0052
:10267C0014000021102268461D0005F0B9F86A46C6
:10268C0002239370054B2A0021006846019304979E
:10269C00059603F0B1FB07B0F0BDC046396A0008DF
:1026AC0010B5024B1B689847002010BD5007002046
:1026BC00034B044A1860022391780B4393707047C4
:1026CC00500700205C010020072310B50449054A7F
:1026DC0099430548521A03F0D4FF002010BDC046A0
:1026EC00E72A0020004002205407002070B5002586
:1026FC001D4B1E4CA3421DD300251D4B1D4CA3424C
:10270C002FD3002070BD19699001091808000D63C2
:10271C003030EFF3108172B61E68186030600029FB
:10272C0002D162B6BFF36F8F013299899142EADC14
:10273C001433DFE70022F8E71A6908011218156054
:10274C00EFF3108072B61E681A603260002802D156
:10275C0062B6BFF36F8F01319A898A42ECDC143375
:10276C00CDE70021F8E7C046240200202402002017
:10277C002402002024020020D0B501267642F7174F
:10278C00074832003B0002F035FA041EF8D0436BC8
:10279C00006B98472100034804F0EBFDF0E7C046BE
:1027AC0014020020F801002030B589B00024002567
:1027BC00802206940795074B0749049403940294CE
:1027CC0001940094D200054802F07CFC200009B072
:1027DC0030BDC04685270008000D0020A80200204F
:1027EC0030B585B008AC247801AD2C710B4C019040
:1027FC006971EA80AB600A4B9C4202D3002005B0A1
:10280C0030BD2368002B02D02A68934203D12800E4
:10281C006368A16898470C34EDE7C046707E0008E9
:10282C00707E000830B587B0104C200004F064FDB9
:10283C0000280BD10E4B0190029300900300012253
:10284C000C4904F0FEF8132040420AE004A90A00E7
:10285C00094B21CB21C2A3681B68002B03D020009D
:10286C00984707B030BD5820EEE7C0462C7A0008D8
:10287C008CD30008C07D0008707E00081FB50122B3
:10288C001F231100034099400B003F280DD9002451
:10289C00104B03900293200023000F4901940094E5
:1028AC0004F0CFF8200004B010BD0C491F280AD842
:1028BC00C8681840834204D00A691A40D21A53429D
:1028CC005A411000EFE7C86A18408342F9D00A6BEE
:1028DC00F3E7C04675D30008C07D0008001802401D
:1028EC001FB501221F231100034099403F280DD929
:1028FC00039000200A4B01900293009003000949B9
:10290C0004F09FF81620404205B000BD064B1F286E
:10291C0003D8D96019610020F6E7D9621963FAE788
:10292C0075D30008C07D000800180240F8B50600F9
:10293C00002501277378AB4200D8F8BD34786419B0
:10294C002000FFF79BFF00280ED02000FFF7C8FFE8
:10295C00074AE1008B58002B06D052181F21380073
:10296C000C40A040516898470135EDB2E2E7C046F3
:10297C00600700200022052010B50C4C11002070BF
:10298C006070FFF787FC002206201100A070E07039
:10299C00FFF780FC0C220721054804F029FF0022D8
:1029AC0007201100FFF776FC002010BDC2010020AB
:1029BC00C601002010B50400FF20002C05D020001B
:1029CC00FDF726FC1F23181AC0B2044B1856044BF3
:1029DC00DA6F1443DC67FFF751FC10BDC201002015
:1029EC0004180240024AD36F8343D3677047C04632
:1029FC0004180240020000B5080003290AD80E4B47
:102A0C00FDF760FB02090C131968914319605968B2
:102A1C009143596000BD19681143F7E75968114398
:102A2C005960196891431960F4E7196811431960EA
:102A3C0059680A435A60EDE70018024070B5FF234D
:102A4C000D001400002804D0FDF7E2FB1F231B1A15
:102A5C00DBB2094AD8008358AB4203D1111849683C
:102A6C00A14204D0002B04D1155012185460002040
:102A7C0070BD10204042FBE760070020FF2310B51B
:102A8C00002804D0FDF7C4FB1F231B1ADBB2002166
:102A9C00024ADB009950D218516010BD600700202B
:102AAC00C022C30452031340032210B5072480082C
:102ABC0003431A401B0C9C40994004489200121886
:102ACC00106EA0430843106610BDC04600180240AB
:102ADC00C022C304520313400322800803431A404C
:102AEC00044918329200505807221B0C9A4010408F
:102AFC00D8407047001802400B8813B50C481B05D2
:102B0C001A0D1B181B0D0C2B0ED80A4C48681319E8
:102B1C001A68024300201A600B881B051B0D1B1939
:102B2C001B680193019B16BD86204042FBE7C04603
:102B3C000000C0FC001002400B8809481B051A0D50
:102B4C001B181B0D0C2B07D80020064B4968D318FB
:102B5C001A688A431A60704786204042FBE7C046D9
:102B6C000000C0FC0010024070B508881E4B000528
:102B7C000D0014001B68000D0C2817D8002801D17B
:102B8C00863870BD02380A2808D8FDF79BFA232333
:102B9C002321230607071C1C1C00144B80222360D6
:102BAC0029685201914217D20020EAE7104A801896
:102BBC000005000D0C2803D80E4AC240D207EDD4F4
:102BCC0086204042DDE700F01DF903015B08E5E7D4
:102BDC00094BE3E70023E1E7090B18000131FDF78E
:102BEC007BFA2060E0E7C046A801002000127A00C2
:102BFC00CC0F000011110000006CDC020C2806D870
:102C0C00044BC3400020DB0700D486387047862075
:102C1C004042FBE7A21F000070B508880C000005BD
:102C2C00000DFFF7EBFF00281EDB6368FF2B1AD0AB
:102C3C0001225802800F013082401F2099B21B0CD8
:102C4C000340013A9A40094E89190D6895430D606D
:102C5C00636899B21A0E1B0C03409A401300891931
:102C6C000C6823430B60002070BDC046001002406E
:102C7C000B880A4A1B05180D9B1810B51B0D0C2B45
:102C8C0008D8074BC018036848689843434258411A
:102C9C00013010BDFFF7B2FFF8E7C0460000C0FCE2
:102CAC0000100240F7B54C4F00F0C4F8380003F0A8
:102CBC00DCFE01F0A5FD1F21484C494AA3683D00EC
:102CCC001B051B0F9B009B580B40D84013680190B1
:102CDC000B401D41A84202D2280001F0D5FD23680B
:102CEC00404A13402360802322685B021343236015
:102CFC0080239B0222681A42FCD080232268DB03CB
:102D0C001343236080231B0422681A42FCD0382210
:102D1C00A3681340102B18D180222368D2001342D1
:102D2C0007D1802321685B000B4323602368134287
:102D3C00FCD00722A3689343A3603823A2681A42ED
:102D4C00FCD1A368284A1340A3602368274A134088
:102D5C0080222360920423681342FCD1244B254922
:102D6C00186880260840802189020143196080215F
:102D7C00186849020143196019681F48760401401C
:102D8C000A431A601A6832431A6000F03FF823684D
:102D9C001E43802326609B0422681A42FCD0A36841
:102DAC00114A1340A3600723A2689A43053B1343BF
:102DBC003822A360A3681340102BFBD1019BAB42BC
:102DCC0002D3280001F060FD0C4B0D4A1F60A36874
:102DDC0000201340A360FEBD0090D0030010024001
:102DEC00A0820008FFFFFBFFFFF0FFFFFFFFFFFECD
:102DFC000C100240FFFFC1FFFFFFFFF1A8010020F4
:102E0C00FF8FFFFF0048704700127A00064B074AFD
:102E1C00D9681140064A0A43DA608022D968520503
:102E2C000A43DA607047C046001002408C80FF1FD6
:102E3C000310002080210F4B4905DA6B82B00A4346
:102E4C00DA63DA6B0A4080210192019ADA6B49024B
:102E5C000A43DA634022DB6B0B400093009B064B6A
:102E6C0019680A431A60202219680A431A6002B0D2
:102E7C007047C04600100240006C004010B5084876
:102E8C0004F03AFA002808D0064C2000FFF710FC9A
:102E9C002000FEF783FC002010BD13204042FBE70E
:102EAC00287B0008B52E000870B50400074D0A28D1
:102EBC0004D1AB680D2128005B689847AB682800EB
:102ECC005B68E1B29847200070BDC046287B0008C3
:102EDC000300F7B519790068DB88826894460269AB
:102EEC00DC0715D4B0246403234301273D000A4CAE
:102EFC0016681C408D4001943400AC433B4201D019
:102F0C0034002C43634614601B68019A9847FEBD3D
:102F1C00D02464036340E8E7FFFFEFFF30B5056999
:102F2C000C006B7885B08B4209D0002902D00229A5
:102F3C0007D1012103F0A3FD00280ED16C700020F5
:102F4C000BE00020064B019002930090030002223C
:102F5C00044903F0EAFD8620404205B030BDC0466E
:102F6C00E7D30008387E000870B506690D00337889
:102F7C0086B08B4229D0042911D0A62302290FD068
:102F8C000020134B02220293862403001149019066
:102F9C00009003F0CAFD6442200006B070BDA72368
:102FAC00172169440B7001231A0003F063FD041E02
:102FBC000ADA0020084B0122029306490300019013
:102FCC00009003F0B2FDE7E735700024E4E7C0465B
:102FDC00FFD30008387E000818D40008F0B58BB079
:102FEC0004900691DD88416828001F009B88584397
:102FFC00C01005903889844698420BD05649574BDF
:10300C0000200293030001220190009003F08DFD3B
:10301C0016240DE0109B002B0ED1514B0122029374
:10302C00109B4D4918000193009303F07EFD3D2445
:10303C00644220000BB0F0BD3B680598834208D277
:10304C000020484B01220293434903000190009059
:10305C00EBE7072410002040224202D03E49424BAD
:10306C00CEE72E0026400796254203D03F4B3A4927
:10307C000293C7E71C1EDCD00B00483306981B7864
:10308C0052311B18D008C0B206900E78DBB208A9DA
:10309C00002E35D00F221A40079E0A701A091023F1
:1030AC003400ED081343EDB24B70F3B2AB42C0D217
:1030BC00069A08A99B185022524213438B7004980D
:1030CC000123533203F0D6FC041E0ADA2249284BA2
:1030DC0000200293012203000190009003F025FDD3
:1030EC00A7E7BA88109B1100714304985918002364
:1030FC0003F0C0FC0136041ED7DA17491D4BE7E775
:10310C00202008800130887060460138CB701B1875
:10311C000B71222352194B71D210069B013A8B7101
:10312C00CA7101230822049803F0A4FC041E0BDAD4
:10313C00114B039002930122330030000649019693
:10314C00009603F0F2FC74E73300059A109904988A
:10315C0003F090FC04006CE7387E000833D40008C0
:10316C0046D4000860D400087CD400088FD4000832
:10317C00A2D40008BBD40008D6D4000837B50C4B39
:10318C0004001B78406801AD2B70036B002B08D03A
:10319C000021303003F0DDFCFA200021C00003F0E8
:1031AC00EFFC012329001A00200003F063FC3EBD54
:1031BC00F2D4000837B50C4B04001B78406801AD05
:1031CC002B70036B002B08D00121303003F0C1FCB5
:1031DC00FA200021C00003F0D3FC012329001A00BF
:1031EC00200003F047FC3EBDF4D40008F0B5456860
:1031FC000400686D00238BB06422C117FDF791F8B1
:10320C0002267642F7170B008C46059003433900D3
:10321C003000002B11D080216346059A09068B42A1
:10322C0004D29C498B4204D1911C02D90222994BA5
:10323C00524230003900801A994103F0A1FC6368B6
:10324C0020009B6B9847061E11D12B6C20009847D1
:10325C00914B039002933000330001228F49019669
:10326C00009603F062FC162040420BB0F0BD2B6BB5
:10327C00002B15D028003030FFF72AFE0028F4DB95
:10328C00286B04F039F800280AD18449844B029346
:10329C00019003000090012203F047FC1320E3E7A8
:1032AC00AB6A002B0DD028002830FFF711FE002848
:1032BC00DBDBA86A04F020F8002802D17749794BAF
:1032CC00E5E7A423666802AA1375330050331B7814
:1032DC002769002B42D0A722042302A94A753B7010
:1032EC00336B002B09D030000121303003F031FC5E
:1032FC00FA200021C00003F043FCB36A002B11D06C
:10330C00350028350121280003F023FC642000211E
:10331C0003F036FC0021280003F01BFC6420002184
:10332C0003F02EFC2000FFF729FF002819DA5B4977
:10333C005D4B03900020029303000122019000904A
:10334C0003F0F3FB0020594B019002930090030013
:10335C000122524903F0E9FB052085E7A62202234E
:10336C00BBE7534A08AD2A80D9226368AA701A00B9
:10337C004C3212785133EA70DB222A711A782023EE
:10338C00002A00D014336B7106220123290020007F
:10339C0003F070FB002803DA4049464B0390C9E761
:1033AC006368454A2A801A004A321278AA70DA22D7
:1033BC00EA701A004F3211781222002900D0103A0C
:1033CC002A71A8224B336A711B782900AB7120003B
:1033DC000123A13A03F04EFB002803DA2F49374BA7
:1033EC000390A7E70021200003F049FB002803DA33
:1033FC002A49334B03909DE7002351367B70337879
:10340C00002B2CD1636852331B78002B11D18D22E9
:10341C0014336B7033232A70AB7003222900200005
:10342C00323B03F027FB002806DA1C49254B03909E
:10343C0080E7AD228B23ECE76368234A58332A805C
:10344C001B78002B0BD0012302222900200003F053
:10345C0011FB002803DA11491C4B03906AE7012386
:10346C000222200007A903F005FB002803DA0B4910
:10347C00174B03905EE78021200003F01BFB030039
:10348C000020834200DBF0E60393124B03490293C6
:10349C0052E7C046FFFFFF7FF6D40008387E0008D5
:1034AC000FD500082CD5000848D5000852D60008C6
:1034BC00D580FFFF5ED5000840D3FFFF78D500080C
:1034CC00A1D50008C5D50008AD300000EED5000828
:1034DC0013D600082FD60008F7B547681E000369FD
:1034EC00B868009201930C0003F0BAFA8023009A9A
:1034FC0005009B039A4215D12000BD68FFF7E8FA3E
:10350C0085420DD12100280003F0AAFA0400FFF730
:10351C0069FA2000FFF7B2FA00212000FFF76AFADF
:10352C000020FEBD8023009ADB039A4224D0802326
:10353C00DB049E421CD0C023DB049E421AD08023A5
:10354C0016209B049E4218D1022628000D49019A90
:10355C00FFF774FA002812D12000B968FFF7A0FA1F
:10356C0028003100FFF746FA2800FFF723FAD7E7C7
:10357C000126EAE70326E8E786204042D1E710203F
:10358C00FBE7C046BB6D000870B5036904005860CA
:10359C000B4D280003F0B0FE00280FD0AB6861681B
:1035AC001B680C31002B04D028009847002803DC42
:1035BC0070BD58204042FBE70020F9E71320F9E7E3
:1035CC002C7A00081FB503691A00503210780028B5
:1035DC000CD1084B01900293009003000122064984
:1035EC0003F01DFC0520404205B000BD1B6A002005
:1035FC000B60F9E7DAD60008E87D000810B503691E
:10360C0042685233D26886B01970002905D113680C
:10361C0009490B40136006B010BD049103680020EB
:10362C00064C0393064B01220293210003000190E8
:10363C00009003F0F4FBEEE7FFFFCFFFE87D0008FE
:10364C00F8D600080022F0B505004368046920484C
:10365C000F00DE685968836889B0DB680792934273
:10366C000ED100201B4B01220293052503001A49A1
:10367C000190009003F0D3FB6D42280009B0F0BD1F
:10368C0007AA98470028ECDB230010332762059328
:10369C00012701225242D317059801F00BFB336826
:1036AC002800BB433360230052331978FFF7A6FF81
:1036BC002800079900F01CF9513423780500002BE1
:1036CC0002D033683B433360059801F0C1FAD4E76C
:1036DC002C7A00080CD70008E87D0008F0B504002F
:1036EC0087B047680569012200215242280003F087
:1036FC0089FE20003B6898472B0000262800503399
:10370C0052351E70103005932E700122110003F0FB
:10371C0079FE234803F0F0FDB0420DD1214B01227C
:10372C0002931324030020490190009003F077FBCF
:10373C006442200007B0F0BD200000F043F83B6964
:10374C001A4906228B4209D01BD81949043A8B42DC
:10375C0004D0184A9B185A4253419A001021200059
:10376C001143FFF76FFF04000020844213DA124B61
:10377C00012202930C4903000190009003F04FFBCF
:10378C00D7E70E4908228B42E8D00D4902328B4212
:10379C00E4D03200E2E70123059A04001370C8E775
:1037AC002C7A00083AD70008E87D000840420F0048
:1037BC00A086010080E5F9FF59D7000840E13300ED
:1037CC00404B4C0030B5456887B00021686905AAAC
:1037DC0003F021FC041E07DB059B002219791868F5
:1037EC0000F0DAFA041E0DDA0020124B01220293CB
:1037FC001149030003940190009003F06CFB20002E
:10380C0007B030BD0D48696883681B68002B0CD16C
:10381C00002005240A4B0122029307490300019062
:10382C00009003F058FB6442E9E79847041EE6D089
:10383C00EEE7C0468AD70008D87D00082C7A00082D
:10384C00A8D70008102110B543680469DB689A6991
:10385C000A4206D0DA6911430122D961A2639B693D
:10386C0010BD20210A420AD0DA6911430122D96124
:10387C009A6103F049FB200001F0EAF9F0E75107E7
:10388C0009D5E26C596A1170A26C013AA264E26C1F
:10389C000132E264E3E7110613D5A26C5968002AE1
:1038AC00E7D0FF2A01D95960D9E70F48120401402B
:1038BC0040340A432178002901D10C490A405A604E
:1038CC00CDE702210A4203D0E26C12789A62DBE760
:1038DC005206C4D5626C127A0A42CAD08022596848
:1038EC00D2010A43EBE7C046FFFF00FFFFFFFFFEDC
:1038FC00F0B544688DB0E36805690693E369002070
:10390C00059308230A279C460B91059B834214D1EF
:10391C002B6A1B075B0F012B3DD0022B00D178E0EB
:10392C004449454B00200293019003000090012272
:10393C0003F00AFB162040421FE00C234343A1690D
:10394C003E4EC9184A680623B24209D017D83C4EDD
:10395C00043BB24204D03B4BD3185A4253419B0018
:10396C002A6A53401B075B0F13D10B680B9A9342C7
:10397C000FD18B68069A136100200DB0F0BD324E4A
:10398C006346B242ECD0314E3B00B242E8D0002349
:10399C00E6E70130B9E72E4B0A93FA231B01099392
:1039AC002C4B0893FA235B0002240793611E0B989F
:1039BC00FCF792FB01002848FCF78EFB0100060087
:1039CC000998FCF789FB431E0593FF2B2BD831007C
:1039DC000A98FCF781FB471EFF2F24D8310007986B
:1039EC00FCF77AFB05000F281DD831000898FCF76E
:1039FC0073FB01380F2816D8023C2D04059B2407B5
:103A0C003D432C4300051B0204431C43069B1C61D5
:103A1C00B2E7124B0A9396239B000993643B0893DD
:103A2C007823FF33C0E70134112CBFD101490C4B73
:103A3C0078E7C046E07D0008D8D7000840420F0068
:103A4C00A086010080E5F9FF40E13300404B4C00BB
:103A5C005C120000E204000000CA9A3B140500004E
:103A6C0053D80008F0B587B005930CAB049204CB87
:103A7C004468049F01921A880369E46803919F6467
:103A8C00D9640127002103AD59639963D9635D643F
:103A9C00A76121683943216061688C466646A1693B
:103AAC000291304931401E6A3E424FD080273F017F
:103ABC003A430A43297A00278E0709D4019EBE4255
:103ACC0006D03678760703D4802676043243013745
:103ADC001E00403637706E68FF2E39D9224E3243A5
:103AEC00029E360612D4C90734D4996C002908D02A
:103AFC00D96C0978A162996C01399964D96C01313E
:103B0C00D9641A4B1340802292011A43F623626047
:103B1C002268134323602D7A046946680023200031
:103B2C00134A01F0C7F8A36B002B17D1636B184332
:103B3C0014D151342378002B06D1AD0704D50121C3
:103B4C00F26813688B43136007B0F0BD5200B0E706
:103B5C003604C4E78023DB001343D4E7052040423E
:103B6C00EDE7C04600F400FC0000FF01FFFBFFFF87
:103B7C0050C30000F0B544688FB0E3680B901F0091
:103B8C000793002306936368069A934205DC237D12
:103B9C00002B00D0A6E0002518E00C23069AA6689E
:103BAC005343F6183068099303F0A6FB35680028D8
:103BBC000FD12B6801220393514B132502935149CA
:103BCC0003000190009003F017FA6D4228000FB02B
:103BDC00F0BDF388317908938023089A5B02134374
:103BEC000D93012630008840AB689C462B691A68FF
:103BFC000A93089B0C928243334201D00C9A0243E5
:103C0C000A9B28001A6063460D9A1B689847051E8C
:103C1C000DD0069B3B4903933B4B04900020029331
:103C2C00012203000190009003F0E6F9CEE7380082
:103C3C000B9B18303B60216903F030FC237D002B7B
:103C4C004BD101221000A668099B391DF618337957
:103C5C00984003002D48FB60B86030688368DB69CE
:103C6C00002B12D09847051E12DA0020284B012297
:103C7C000293244903000190009003F0BDF9069BC8
:103C8C00204903930495234BC8E758256D42ECE774
:103C9C003179306803F08CF940233874F28830683D
:103CAC0031791A4083689D69002D13D0C023DB0441
:103CBC001343A0225204A847051E0EDA0020164B0F
:103CCC00012202930F49030003950190009003F029
:103CDC0093F9D4E758256D42F0E7069B483701333A
:103CEC00069350E76422002320680021FCF719FB9F
:103CFC00020007980B00183001F080F94BE7C04622
:103D0C0086D80008C87D000896D80008E16F000826
:103D1C00B6D80008D2D80008D9D80008F0B51838A1
:103D2C0007681A4E7A680400D3689568C31ADB10CA
:103D3C005E430C237343ED182979286887B003F090
:103D4C0037F9031E0DDA04900020114B0122029367
:103D5C001049030003960190009003F04DF907B051
:103D6C00F0BD1022A2568242F9D02074591E8B410C
:103D7C0001204042C117AA6802900391012138002A
:103D8C0092B20091FEF72CFDE9E7C046398EE3387C
:103D9C00FCD80008C87D0008F7B504000025C90050
:103DAC0043180193019B9C4201D1002035E01F2751
:103DBC001023226817401A4217D1202563681D432F
:103DCC00F821530949000B40E2395209FF390A40E6
:103DDC001A4300921B09192B20D8114A9B009E589C
:103DEC00002E0AD11320404217E0102F03D0112FC0
:103DFC00E6D16568E4E73025E2E7300003F07CFAB1
:103E0C000028EFD00F2300992A00194030003B0006
:103E1C0002F0E6FF08340028C4DAFEBD1620E2E703
:103E2C004881000843681B68EFF31081012282F37C
:103E3C001088986802439A6081F310880C4A934268
:103E4C0005D00C4A934202D00B4A934203D1402234
:103E5C0059680A435A60EFF31081012282F31088EB
:103E6C001868FF3202431A6081F310887047C0460D
:103E7C0000380140004400400048004043681B6883
:103E8C00EFF31080012181F310889A688A439A60BD
:103E9C0080F310880C4A934205D00C4A934202D00E
:103EAC000B4A934203D140215A688A435A60EFF37C
:103EBC001081012282F3108806481A6802401A60A9
:103ECC0081F310887047C046003801400044004020
:103EDC0000480040FFFEFFFFF0B5436806000D00F0
:103EEC001F6889B0002932D0586819698368DB686B
:103EFC00002B10D007AA9847041E0FDA0020174B8E
:103F0C0001220293164903000190009003F07EF900
:103F1C00200009B0F0BD58246442EFE73B68114A19
:103F2C00680813403B60079B2900C018FCF7D4F8C5
:103F3C000F280FD8002004953368012203930A4BF5
:103F4C000749029301900300009003F05FF91624D7
:103F5C006442DDE780B20024F860D9E70CD7000892
:103F6C00587E0008FF7FFFFF41D90008F7B50C0011
:103F7C00036941681D682379012B13D09A1E5642A0
:103F8C007241920200926679022E0ED8494F760049
:103F9C00F75BA679022E0BD0042E34D05E1EB341F3
:103FAC001B0308E0C022D200ECE78027BF01F0E73A
:103FBC005E4273411B07E67901960026B446019ECA
:103FCC00012E02D1C026B600B4460968A5421DD107
:103FDC000C68394E009A3440224313430B604B68F3
:103FEC00364A13403B434B60436835491A68936823
:103FFC000B4061460B4393602968FFF76DFF002867
:10400C0000DD0020FEBD80235B01D4E7C0220E68DA
:10401C00D2001640009AB24205D00E68294A1640CA
:10402C00009A16430E60C0264268B60111684A68B1
:10403C003240974204D04A68204E32403A434A609C
:10404C004268214E11680A683240934204D00A68D3
:10405C001E4E324013430B60C021436889001A681E
:10406C0093680B409C4505D0936815490B406146FD
:10407C000B43936080224368D2011B6899681142FC
:10408C0006D0019A032A09D09A6811490A4004E023
:10409C000199032902D199680A439A6021682B6817
:1040AC009942AED0FFF718FF0028ABDB23682B60DA
:1040BC00A7E7C04618830008FFE9FFEFFFCFFFFF1B
:1040CC00FFFCFFFFFFF9FFFF00100010FFEFFFEFF9
:1040DC00FFBFFFFFF0B54768060089B0786803F0B2
:1040EC000BF900280BD17049704B0293012203008D
:1040FC000190009003F08AF8132464420FE0786872
:10410C00396983681B68002B0CD09847041E0BD1AF
:10411C000021786A07AA02F07EFF041E11DA200043
:10412C0009B0F0BD582464420020614B0122029377
:10413C005D4903000190009003F068F8002CEEDB61
:10414C00E6E7079B002219791868FFF725FE041E85
:10415C00E5DB0122756833692C681B6805932368BD
:10416C0093432360A86803F0C7F8002802D14E4996
:10417C00504BBAE7A868E9688368DB68002B00D06D
:10418C009847EFF31082012383F310880C212368E6
:10419C000B43236082F3108830000599FFF7E6FE8D
:1041AC00002801DA1624A8E72B7E002B03D0082365
:1041BC00A2681343A3606B7E002B04D0802263683B
:1041CC00120213436360AB7E002B04D08022636821
:1041DC00520213436360EB7E002B04D08022636891
:1041EC009202134363602B7F002B41D0324B9C42D5
:1041FC0021D0324B9C421ED0314B9C421BD0314BB8
:10420C009C4218D0304B9C4215D0304B9C4212D063
:10421C002F4B9C420FD02F4B9C420CD0002033686C
:10422C00012203932C4B2049029301900300009030
:10423C0002F0ECFFB6E773681A6880239168DB0123
:10424C000B43936022686B7F24495B050A40134340
:10425C0023602268AB7F22491B040A40134323606E
:10426C00EB7F002B04D08022A36812021343A360BF
:10427C000135EB7F002B04D0802322689B05134370
:10428C002360012322681343236080239B03E2698C
:10429C001A42FCD08023DB03E2691A42FCD03000C6
:1042AC00BB6A984700243AE7587E00083AD70008C2
:1042BC0058D9000878D90008003801400044004063
:1042CC0000480040004C004000500040003C0140C1
:1042DC00008000400084004093D90008FFFF1FFCC1
:1042EC00FFFFE0FF70B50369C0221B680C001B6860
:1042FC00D2000B608021436805001B68C9001B6855
:10430C00134002228B4204D01C4A9B185A42534140
:10431C00DAB2C021802022716B6889011B680022EF
:10432C005B6840010B40834206D002328B4203D0C3
:10433C00013A002B00D0023262716B681B6818685E
:10434C001968C023DB0019400D4B184002F0AFFE7A
:10435C00C022A0716B6892001B689B681340094ACD
:10436C009B185A425341DBB2E3716A681268926837
:10437C00520400D503230020E37170BD00FAFFFF47
:10438C000010001000FDFFFFF7B5436800901C689B
:10439C0003690D001B6801934B790A799C46887957
:1043AC00012A16D1022B2ED9C02180230600C90068
:1043BC009B01022800D188E0042836D000208242DC
:1043CC0037D08020033A4001012A32D8862040425F
:1043DC00FEBD022A09D1022B23D980210600C90077
:1043EC00022860D080239B01E6E7022B1BD9060034
:1043FC0000210228F6D10021002A54D1802011007E
:10440C00400503221AE0C021C9006646344B7600F1
:10441C00F35A06000228CFD1002A56D1802040053D
:10442C0007E08021F0E70021EFE7002ACED18020C1
:10443C004001802700227F01BB423CD16245C5D19F
:10444C0002F035FEB042C1D1EB79002B19D0012B13
:10445C0042D1244B9C4214D0234B9C4211D0234B71
:10446C009C420ED0224B9C420BD0224B9C4208D03B
:10447C00214B9C4205D0214B9C4202D0204B9C42AC
:10448C00A4D1012623682900B34300982360FFF7C9
:10449C006DFD00289ADB236800201E43019B2660DB
:1044AC0006CD06C394E7033A012A00D88EE7802391
:1044BC00002002269B01C0270222BF01BB42BDD0B7
:1044CC00013A002BBAD00232B8E7033A012A00D8DD
:1044DC007CE702260020ACE7032BBAD076E7C04677
:1044EC001883000800380140004400400048004098
:1044FC00004C004000500040003C01400080004057
:10450C000084004070B543680D001C68C02320680F
:10451C002168DB001940114B1600184002F0C7FD52
:10452C00042817D08023E26900201A4211D0EFF33F
:10453C00108272B6311A002906DDE169194203D0E6
:10454C00295C0130A162F5E7002A02D162B6BFF303
:10455C006F8F70BD86204042FBE7C04600100010F4
:10456C0070B543680D001C68C02320682168DB000F
:10457C0019400D4B1600184002F099FD042810D07C
:10458C00002020220823311A00290CDDE169114298
:10459C0009D0616A2954E16901301942F3D02362D0
:1045AC00F1E78620404270BD0010001070B58025E8
:1045BC001049114B8C681B680E6810488A686D0294
:1045CC00002C08D1002A11D11A002E4209D1006802
:1045DC001818801A70BD002A0AD02E4201D1A242AE
:1045EC00F5D90468E41804600968F0E71C00F4E7E6
:1045FC001A00F2E710E000E0B0080020AC08002040
:10460C00094A0020136A1B021B0A1362A022074BE3
:10461C0092001A60064B074A1860074B5A60072233
:10462C0098601A607047C04600ED00E0B0080020AA
:10463C00AC0800207F02000010E000E0F8B5002478
:10464C00FFF7B4FF104E23003168104D0A002868A4
:10465C0069688018594128606960A0210C4D34604C
:10466C0089002E686F68801BFBF736FDA02189003E
:10467C00414323000A0092197B412A606B6001F0D0
:10468C0087F9FDF7B9FCF8BDAC08002050040020F8
:10469C0048040020F0B53B4B3B4D87B0002960D05F
:1046AC00421C08D101212A688A432A60FF22120683
:1046BC001A6007B0F0BD1B68039300230293012816
:1046CC0054DCEFF31083059372B6FFF76FFF0022F3
:1046DC001100AB6804932D4B1E685F6836184F4170
:1046EC003000390018605960294B009601971A6008
:1046FC00284B1C68009B1B1B93423EDBA027029897
:10470C00BF007843244A39008018C018FBF7E4FC3A
:10471C00009B7843E41A80232018DB00984200D2D7
:10472C0018001E4B984200D91800164B17491860F8
:10473C000138AB6868600020A860049AD41A9A42C9
:10474C001ED2039D621903000C684D6812196B414F
:10475C000A604B60059B002BABD162B6BFF36F8F29
:10476C00A7E71B680393431CA7D10D480D4B984238
:10477C0000DD1800431E0293A3E78020C000D4E79D
:10478C002200E0E7B008002010E000E05004002018
:10479C00AC080020480400207F02000080FCFF00D1
:1047AC00656600006666000070B5EFF3108572B6A2
:1047BC00084A094B14681B68E41AFFF7F7FE001946
:1047CC00002D02D162B6BFF36F8FA0218900FBF7D9
:1047DC0083FC70BD500400204804002070B5EFF33A
:1047EC00108572B6054B1C68FFF7E0FE2018002DF3
:1047FC0002D162B6BFF36F8F70BDC046500400206B
:10480C00382370B51D4CA2681A4205D123681C4888
:10481C009B045B0FD84070BDA2681A40082A27D0B1
:10482C00A2681A40102A17D1E368E168DB43E568F7
:10483C004906490F6F322D0A013115409B0709D1EA
:10484C001048FBF749FCE1686843490F0131FBF75D
:10485C0043FCE0E70A48F4E7A2681A40202A09D092
:10486C00A26800201340182BD5D1FA20C001D2E742
:10487C000448D0E780200002CDE7C046001002407B
:10488C000024F40000127A000F4B411E020001209C
:10489C00994217D80D4902238A4203D80C4B9342F4
:1048AC009B415B4207200B490A6882431A430A600A
:1048BC000A680240934201D00A680240981A421ECC
:1048CC009041C0B27047C046FF8FD003006CDC0231
:1048DC0000366E01002002401FB50400FDF766F89B
:1048EC000020064B01900293009003000122044922
:1048FC0002F00FFD200002F01BFDC046F0D90008AD
:10490C00207E0008F0B505000E0089B0EFF310838F
:10491C00079372B6264A274B9768042802D8264B71
:10492C008100CB580024254920000691127C049369
:10493C00234B0592029301222300039501940094CA
:10494C0002F0E7FCA6420DD0F369DB05A34209D0C7
:10495C001C4B012202932000230006990194009421
:10496C0002F0D7FC002F07D0380002F0ACFD002875
:10497C0002D00378002B00D1134804900020134B75
:10498C00012206990293019003000090039702F014
:10499C00C0FC31002800FFF79FFF079B002B02D1C2
:1049AC0062B6BFF36F8F3800FDF700FC09B0F0BDA5
:1049BC00B4080020FFD90008E0820008207E00081F
:1049CC0015DA00083DDA00080DDA00085EDA000896
:1049DC00F8B501270A4E83009D59013084003359E4
:1049EC00AB4200D8F8BD6868002806D0037E3B4275
:1049FC0001D102F068FC0835F1E72B689847FAE71B
:104A0C00F4820008012270B5234B032086B01A7083
:104A1C00FFF7DEFF01F0F4F80420FFF7D9FF1F4C7D
:104A2C0026001F4DAC420ED300F0A0FCAE4220D3AA
:104A3C0000F0ACFCFBF706FD01211A4A93898B436D
:104A4C00938106B070BD636A0593236A0493E3698E
:104A5C000393A36902936369019323690093E36849
:104A6C00A2686168206800F0E9FA23685C6530345C
:104A7C00D7E7B26AF36A511C01D1591C05D0110059
:104A8C003068194303D100F057FD3036CEE70649A4
:104A9C00183000F0EDFEF8E7FA0C0020C87C000896
:104AAC00C87C0008D8040020BB75000870B501252F
:104ABC000400C6010102124880220918002086B0A9
:104ACC0004950E350395053565430E4B0590029004
:104ADC0001900D48F6182D180C4B30000095520023
:104AEC0000F0ACFA0422337C2C74934333740134FD
:104AFC00074BE402E418EE606C6006B070BDC04673
:104B0C000019002058040020B4080020E9730008A4
:104B1C0000110020F0B5002087B0FFF759FF234BA0
:104B2C0083F308882249234B0A6A00251A40C023C4
:104B3C001B0413430B62FDF70DFBFDF715FCFDF792
:104B4C00DBFCFDF745FCFCF70BFF1B4800F0E6FA1D
:104B5C00FCF760FE0120FFF73BFF0220FFF738FF58
:104B6C0000F044FC154C164B80225C61154B164E24
:104B7C00059301231549049312013300200003957A
:104B8C0002950195009500F059FA04220700237C48
:104B9C0020009343237402F0D4FC2800FFF786FF17
:104BAC00320039002000FDF7C3FBC046001900207D
:104BBC0000ED00E0FFFF00FF58050020D8040020A6
:104BCC00B4080020DFD00008114A0008001A0020A9
:104BDC00002010B5054C064B9C4200D310BD2000A4
:104BEC0002F0AAFB0028F9DB1C34F4E7F8010020E2
:104BFC001402002037B5EFF3108572B60468002C50
:104C0C0013D003222368934342680360944200D17B
:104C1C0043602000012102F0E8FB0400002D02D1CA
:104C2C0062B6BFF36F8F20003EBD11001943F5D063
:104C3C000830009229000200019300F04FFB00287D
:104C4C00F1D1024B9B685C69EDE7C046B4080020CB
:104C5C0070B5EFF3108572B60468A0421AD0002C20
:104C6C0018D062682368002613605A600222200064
:104C7C00237C2660934323746660A660183002F090
:104C8C00EBFC2000A66702F05CFC2900084800F051
:104C9C0041FB70BD8268C3689B1A591E8B419B18DF
:104CAC008360002DF5D162B6BFF36F8FF1E7C0467C
:104CBC00FB0C002013B50400EFF3108172B6806872
:104CCC00002808D00138A060002902D162B6BFF3D9
:104CDC006F8F002016BD1000184307D1002902D198
:104CEC0062B6BFF36F8F10204042F3E7009201933E
:104CFC002200024800F0F2FAECE7C046FB0C002060
:104D0C00F0B5060087B0EFF3108772B633003500AC
:104D1C0084331C689C35002C1CD10221280002F025
:104D2C007EFB002866D03400943400220121200040
:104D3C0002F074FC0028F8D10023029301225242A5
:104D4C00D31700920193320039008C323C4800F0AA
:104D5C00AFFCD8E7226859681A608C4200D15A60BF
:104D6C0002222B6813432B600423E2689A43033B13
:104D7C001343E3606368002F47D020009847EFF39C
:104D8C001083059372B6E36801211A008A43100957
:104D9C0008423ED1E260E3689A071AD50222934397
:104DAC00E360284B1868002813D000210268002803
:104DBC000FD04768BC423AD10268002931D15968FA
:104DCC001A60814200D15A60002303600830FFF75B
:104DDC003FFF02222B689343059A2B60DB05DB0F08
:104DEC00002A02D162B6BFF36F8F002B8BD100F07B
:104DFC0007FB88E72B68DB069ED52860002F02D1C5
:104E0C0062B6BFF36F8F07B0F0BD62B6BFF36F8FA2
:104E1C00B3E711229343E36020001030FFF718FF33
:104E2C00B9E70A605A688242CED15960CCE7944601
:104E3C00002A01D011688C46010010006246B6E7CA
:104E4C00FB0C0020D4080020F7B5C3680E005908ED
:104E5C0001220D000400154011424ED19B08134253
:104E6C001FD13368002B01D1836833600125E368BF
:104E7C002B4202D0A3686D19336033680193002B69
:104E8C0049D0264A0433019F9268DB6F9C379A42C3
:104E9C0024D001213A6893080B400A4204D113250F
:104EAC006D420023336017E0002B26D1D3080B4052
:104EBC00002B22D100232360019B84335A68002AE3
:104ECC0026D15C601C60019802F0C5FA0423E268EC
:104EDC001343E3603368A3602800FEBD02F0EAFAD6
:104EEC0001223B6800280AD1D90811401342D6D0C0
:104EFC000029DFD09B081342DCD11025D0E799089C
:104F0C0011401342CBD00029F7D1DB081340CFE777
:104F1C0014605C60D7E71625C2E7C046B4080020D1
:104F2C00F0B50026040089B08430066046600E9D02
:104F3C000830006040600830006040600120B542DD
:104F4C0007D0287946427041FF264042B0430230D8
:104F5C00FF3026009C36306001267642F717069605
:104F6C00079700260F48039304960300029620002F
:104F7C000196009400F0A6F8B5420CD02968B14215
:104F8C0002D0200002F09CFA6B79002B03D0012395
:104F9C00A2891343A381200000F0CEFA231DDC6705
:104FAC0009B0F0BD0D4D0008F7B50C0016001D0042
:104FBC000190EFF3108772B6080002F03CFA2B0058
:104FCC00334309D1200001A9FFF73EFF002F02D186
:104FDC0062B6BFF36F8FFEBD08232000E26806495E
:104FEC001343E360019B3200A36210302B0000F0EE
:104FFC003FFC0120EAE7C0467574000810B5034C6D
:10500C0001002000FFF7D0FF10BDC046F8050020BE
:10501C00084B9B681A7CD2070BD41B6E064A196886
:10502C00914206D01A6062B6BFF36F8F0223181C30
:10503C0002DF7047B4080020F0F0F0F0F0B589B052
:10504C000793030058338365C365129B072783813D
:10505C00042300260732BA430374D219119BBA43B6
:10506C0083738B180693154B0D008660C67386618F
:10507C00C6610B60069904000592FCF7A1FF059B25
:10508C00C0196366069BB8431F1A109BA066256661
:10509C0002930F9B3A0001930E9B29000093200072
:1050AC00079BFDF72FF9064B66659B68B34200D052
:1050BC00DB6E3800E36609B0F0BDC046F0F0F0F0EE
:1050CC00B408002070B50400002086B005900E983E
:1050DC00119D04900D98109E03900C9802900B98C3
:1050EC0001900A9800902000FFF7A8FF2B00721C7B
:1050FC0001D1013305D02B00334305D1200000F042
:10510C001BFA200006B070BD200032002B000249B3
:10511C00183000F0ADFBF4E7BB75000801230374F5
:10512C008381002303664366C366014B9860704716
:10513C00B4080020102370B5C356027C002B38DB5A
:10514C00D30636D180235B4213431B4C0374A369F3
:10515C001A49E2698B4207D1016042601060E0613C
:10516C0011E09A42F8D01B68002BF5D00E250E26C4
:10517C0045579E57B542F4D0AE42F2DD5A680360F3
:10518C00426010605860A5698D4201D0002D00D19D
:10519C00E568A3681A7CD20605D1DA897F2A02D980
:1051AC00AA69002A06D0AB4202D0280000F0C6FA49
:1051BC00656170BD6361FCE7B4080020CC08002079
:1051CC00102270B582560500037C002A04DA7F2277
:1051DC001340037402F079F90D4E0E4AB469B368AA
:1051EC00944201D0002C00D1F468AB4208D01A7C58
:1051FC00D20605D1DA897F2A02D9A269002A05D004
:10520C00A34202D0200000F099FA2300736170BD14
:10521C00B4080020CC08002010B50400FFF7F8FEFD
:10522C000B21084A4942936899675C6780230649B9
:10523C005B05486803434B6062B6BFF36F8F93689E
:10524C00986F10BDB408002000ED00E010B5511CA3
:10525C0001D1591C03D00249183000F009FB10BDD4
:10526C00BB75000870B51B4CA168E3690A68CB1AC2
:10527C00581E834149685B420A6051601340E169E2
:10528C00A268002B05D1144B516013600A60E261D7
:10529C000CE00E200E2510565D57A84215D0854205
:1052AC0013DD5968136051600A605A60A5690A4B96
:1052BC009D4201D0002D00D1E568A3689D4202D02B
:1052CC00280000F03BFA656170BD9942DBD01B6889
:1052DC00D7E7C046B4080020CC08002070B50C00FD
:1052EC0011000A4A0A4B90681860EFF3108372B6EB
:1052FC009568280002F0FCF8049A059B2800FFF73B
:10530C00A5FF2000FFF788FF70BDC046B408002041
:10531C00DC08002010B500290AD1EFF30580002825
:10532C0007D1064B9A685B699A4202D0FFF774FF6B
:10533C0010BD62B6BFF36F8FFAE7C046B408002009
:10534C0010B500280AD1EFF30580002807D1064BD1
:10535C005A699B689A4202D0FFF75EFF10BD62B695
:10536C00BFF36F8FFAE7C046B4080020EFF310814B
:10537C0072B6054B9A68D37B013BD373002902D1DB
:10538C0062B6BFF36F8F7047B408002070B5EFF3AF
:10539C00108672B6134DAB68DA7B0132DA73AC69E6
:1053AC00114A944201D0002C00D1EC681A7CD20630
:1053BC0005D1DA897F2A02D9A269002A05D0A34235
:1053CC0002D0200000F0BAF923006B61002E02D14C
:1053DC0062B6BFF36F8FEFF3108072B6FFF7B0FFBA
:1053EC0070BDC046B4080020CC080020024B034A14
:1053FC009A61DA617047C046B4080020CC080020DE
:10540C0070B5EFF3108572B61C4CA168E3690A689D
:10541C00CB1A581E834149685B420A6051601340A5
:10542C00E169A268002B05D1154B516013600A602D
:10543C00E2610CE00E200E2610569E57B04218D09A
:10544C00864216DD5968136051600A605A60A6697D
:10545C000B4B9E4201D0002E00D1E668A3689E4201
:10546C0002D0300000F06AF928006661FFF7D4FE24
:10547C0070BD8B42D8D01B68D4E7C046B40800205E
:10548C00CC080020F8B5030007000C000B4303D137
:10549C00FFF7B6FF0020F8BDEFF3108672B6134D80
:1054AC00134BA8681860FFF78BFEA86823003A001E
:1054BC001049183000F0DCF90423AA680400117CB0
:1054CC0030000B431374FFF7A7FEAB689A6A002AEF
:1054DC00E0D18022DB6A12069342DBD102F0E2F8C3
:1054EC00201AC343DB171840D5E7C046B408002088
:1054FC00DC080020BB75000870B504000D00FFF738
:10550C00C1FF01002000631C01D1013510D00A003D
:10551C00CB17632000218018594164220023FAF72D
:10552C00B5FE002903D180231B06984200D3014805
:10553C0070BDC046FFFFFF7F70B50400EFF3108510
:10554C0072B60426037C33420DD0183002F084F876
:10555C00237C2000B3432374FFF7ECFD290005489E
:10556C00FFF7D8FE70BD002DFCD162B6BFF36F8F74
:10557C00F8E7C046FB0C0020014B98687047C0460A
:10558C00B4080020F0B5838985B004000393EFF3D1
:10559C001083019372B6019B02930823027C1A427A
:1055AC0007D0019B002B02D162B6BFF36F8F05B001
:1055BC00F0BD1900114348B2002857DB2174A368D1
:1055CC00002B02D0200001F088FF200026001830AC
:1055DC0002F042F85836A56DAE4201D0002D4DD1E7
:1055EC00304F0025BB689C4204D1EFF305856A1E41
:1055FC009541EDB2BE692C4A964201D0002E00D1E5
:10560C00FE68B34202D0300000F098F820007E61B2
:10561C0001F0DCF9002D02D02448FFF77FFDBB68B8
:10562C009C4238D1EFF30583002B34D1A389DB07DF
:10563C000FD5019B002B02D162B6BFF36F8F62B600
:10564C00BFF36F8F0423181C02DFEFF3108372B6C5
:10565C0002930298FFF7E0FD039BDB07A7D562B628
:10566C00BFF36F8F0423181C02DFA0E77F210A40D1
:10567C0013432000237401F028FFA0E7280001F059
:10568C002CFF2800183001F0E7FF00232800AB673F
:10569C00FFF750FD9FE7019B002BDDD162B6BFF3F6
:1056AC006F8FD9E7B4080020CC08002058050020E3
:1056BC0073B5069D079E089C00950196FFF70EFE9C
:1056CC00002C03D0024B9B685B69236076BDC046FF
:1056DC00B408002010B5047C1F21220003000A40EE
:1056EC0000200C4210D10A4910008B420CD0094901
:1056FC000868002808D0D9897F2906D80E21595668
:10570C00054B1B68994200DB10BD1000FCE7C0463E
:10571C0058040020AC010020E00800200121044BBB
:10572C00044AC01A044BC0104343D1547047C046BE
:10573C00D8050020FB0C0020ABAAAAAA70B518252E
:10574C000B4B1E7CFFF7C6FF75430A4B0400ED188C
:10575C00280001F081FF0022074B9A55944205D096
:10576C00621E28000549D31700F082F870BDC046B0
:10577C00B4080020D8050020FB0C00202957000895
:10578C0070B5EFF3108572B6104A114B9468186817
:10579C00A04207D1FFF7D2FF002D02D162B6BFF3B2
:1057AC006F8F70BD00211960127C0A4B9B5C8B4281
:1057BC00F2D02000FFF78EFF0028EDD0237CDB0613
:1057CC0001D1FFF74FFD2000E4E7C046B4080020EC
:1057DC00DC080020FB0C0020024B1868984200D11A
:1057EC0000207047B001002070B50600FFF7F4FFF1
:1057FC00002810D0026943693400F517121BAB4125
:10580C00002B08DC03D1802109068A4203D2D8433D
:10581C00C017104070BD0148FCE7C046FFFFFF7F7A
:10582C00002010B5034B1B68834201D1FEF7BCFF6F
:10583C0010BDC046E408002030B500280ED00B4B3C
:10584C005B6898420AD00168002907D00A694B6945
:10585C000469456912196B410A614B61036842681E
:10586C0013605A6000230360436030BDB001002018
:10587C00F0B5040015001E0085B0531C02D1731C3A
:10588C0000D17CE0A160EFF31083039372B6002E7D
:10589C0026DBFFF7C5FF0021009001204019714164
:1058AC00009AD31712184B4136492261636108687C
:1058BC00496812184B411E00150001230293FFF793
:1058CC008BFF0700304B9C465B680193002F1DD16A
:1058DC0063462360019B63601C6063465C6027E049
:1058EC00284B1868596802225242D317121A8B415E
:1058FC00521BB3411100002B04DC01D1002A01D151
:10590C0001210023636121610023D7E7386979699C
:10591C0022696369994202DC28D1904226D9801A07
:10592C0099417B6838617961636027601C607C6099
:10593C00FFF752FF84420FD1144B1B68002B0BD185
:10594C00029B002B02D1FFF76BFF00900098FFF732
:10595C004BFF0021FEF79EFE039B002B02D162B68B
:10596C00BFF36F8F2800310005B0F0BD121A8B41C8
:10597C0022616361019B9F42AAD03F68A6E7002584
:10598C000026EFE7F0050020B0010020E40800201D
:10599C00F0B587B0EFF3108372B601932F4B1860FC
:1059AC00FFF71AFF2E4F04003A687B6802920393AC
:1059BC002A4B9C461D6800280FD042690669EB17DC
:1059CC009A4202DC24D1AE4222D9190022696369C1
:1059DC002800121A8B4122616361029803992A00F4
:1059EC00EB1712184B4100243A607B606346200091
:1059FC001C60FFF7F9FE2100FEF74CFE019BA34251
:105A0C0002D162B6BFF36F8FFFF7BAFE07B0F0BDDD
:105A1C00F31704960593049A059B02980399801832
:105A2C005941002300220E4D226163612860696098
:105A3C002000FFF701FF019B002B02D162B6BFF3E0
:105A4C006F8F2000A3689847EFF3108372B6034A58
:105A5C00019313689B1B1360A2E7C046E408002067
:105A6C00F005002010B5EFF3108472B6FFF7D8FEE6
:105A7C0002000649C3170868496880185941002C70
:105A8C0002D162B6BFF36F8F10BDC046F005002087
:105A9C00F7B50400EFF3108572B603680195002B7F
:105AAC0005D0002D5CD162B6BFF36F8F58E0012298
:105ABC00C16A806A002312184B41002B01D1012AC4
:105ACC0033D901267642F71736184F41002F01DAE9
